{
  "_format": "hh-sol-artifact-1",
  "contractName": "StakingUpgradeable",
  "sourceName": "contracts/StakingUpgradeable.sol",
  "abi": [
    {
      "inputs": [],
      "stateMutability": "nonpayable",
      "type": "constructor"
    },
    {
      "inputs": [
        {
          "internalType": "address",
          "name": "target",
          "type": "address"
        }
      ],
      "name": "AddressEmptyCode",
      "type": "error"
    },
    {
      "inputs": [
        {
          "internalType": "address",
          "name": "implementation",
          "type": "address"
        }
      ],
      "name": "ERC1967InvalidImplementation",
      "type": "error"
    },
    {
      "inputs": [],
      "name": "ERC1967NonPayable",
      "type": "error"
    },
    {
      "inputs": [],
      "name": "EnforcedPause",
      "type": "error"
    },
    {
      "inputs": [],
      "name": "ExpectedPause",
      "type": "error"
    },
    {
      "inputs": [],
      "name": "FailedInnerCall",
      "type": "error"
    },
    {
      "inputs": [],
      "name": "InvalidInitialization",
      "type": "error"
    },
    {
      "inputs": [],
      "name": "NotInitializing",
      "type": "error"
    },
    {
      "inputs": [
        {
          "internalType": "address",
          "name": "owner",
          "type": "address"
        }
      ],
      "name": "OwnableInvalidOwner",
      "type": "error"
    },
    {
      "inputs": [
        {
          "internalType": "address",
          "name": "account",
          "type": "address"
        }
      ],
      "name": "OwnableUnauthorizedAccount",
      "type": "error"
    },
    {
      "inputs": [],
      "name": "ReentrancyGuardReentrantCall",
      "type": "error"
    },
    {
      "inputs": [],
      "name": "UUPSUnauthorizedCallContext",
      "type": "error"
    },
    {
      "inputs": [
        {
          "internalType": "bytes32",
          "name": "slot",
          "type": "bytes32"
        }
      ],
      "name": "UUPSUnsupportedProxiableUUID",
      "type": "error"
    },
    {
      "anonymous": false,
      "inputs": [
        {
          "indexed": false,
          "internalType": "uint64",
          "name": "version",
          "type": "uint64"
        }
      ],
      "name": "Initialized",
      "type": "event"
    },
    {
      "anonymous": false,
      "inputs": [
        {
          "indexed": true,
          "internalType": "address",
          "name": "previousOwner",
          "type": "address"
        },
        {
          "indexed": true,
          "internalType": "address",
          "name": "newOwner",
          "type": "address"
        }
      ],
      "name": "OwnershipTransferred",
      "type": "event"
    },
    {
      "anonymous": false,
      "inputs": [
        {
          "indexed": false,
          "internalType": "address",
          "name": "account",
          "type": "address"
        }
      ],
      "name": "Paused",
      "type": "event"
    },
    {
      "anonymous": false,
      "inputs": [
        {
          "indexed": true,
          "internalType": "address",
          "name": "user",
          "type": "address"
        },
        {
          "indexed": false,
          "internalType": "uint256",
          "name": "reward",
          "type": "uint256"
        }
      ],
      "name": "RewardPaid",
      "type": "event"
    },
    {
      "anonymous": false,
      "inputs": [
        {
          "indexed": false,
          "internalType": "uint256",
          "name": "newRate",
          "type": "uint256"
        }
      ],
      "name": "RewardRateUpdated",
      "type": "event"
    },
    {
      "anonymous": false,
      "inputs": [
        {
          "indexed": true,
          "internalType": "address",
          "name": "user",
          "type": "address"
        },
        {
          "indexed": false,
          "internalType": "uint256",
          "name": "amount",
          "type": "uint256"
        }
      ],
      "name": "Staked",
      "type": "event"
    },
    {
      "anonymous": false,
      "inputs": [
        {
          "indexed": false,
          "internalType": "address",
          "name": "account",
          "type": "address"
        }
      ],
      "name": "Unpaused",
      "type": "event"
    },
    {
      "anonymous": false,
      "inputs": [
        {
          "indexed": true,
          "internalType": "address",
          "name": "implementation",
          "type": "address"
        }
      ],
      "name": "Upgraded",
      "type": "event"
    },
    {
      "anonymous": false,
      "inputs": [
        {
          "indexed": true,
          "internalType": "address",
          "name": "user",
          "type": "address"
        },
        {
          "indexed": false,
          "internalType": "uint256",
          "name": "amount",
          "type": "uint256"
        }
      ],
      "name": "Withdrawn",
      "type": "event"
    },
    {
      "inputs": [],
      "name": "UPGRADE_INTERFACE_VERSION",
      "outputs": [
        {
          "internalType": "string",
          "name": "",
          "type": "string"
        }
      ],
      "stateMutability": "view",
      "type": "function"
    },
    {
      "inputs": [
        {
          "internalType": "address",
          "name": "",
          "type": "address"
        }
      ],
      "name": "balances",
      "outputs": [
        {
          "internalType": "uint256",
          "name": "",
          "type": "uint256"
        }
      ],
      "stateMutability": "view",
      "type": "function"
    },
    {
      "inputs": [
        {
          "internalType": "address",
          "name": "account",
          "type": "address"
        }
      ],
      "name": "earned",
      "outputs": [
        {
          "internalType": "uint256",
          "name": "",
          "type": "uint256"
        }
      ],
      "stateMutability": "view",
      "type": "function"
    },
    {
      "inputs": [],
      "name": "getReward",
      "outputs": [],
      "stateMutability": "nonpayable",
      "type": "function"
    },
    {
      "inputs": [
        {
          "internalType": "address",
          "name": "_stakingToken",
          "type": "address"
        },
        {
          "internalType": "address",
          "name": "_rewardToken",
          "type": "address"
        },
        {
          "internalType": "uint256",
          "name": "_rewardRate",
          "type": "uint256"
        },
        {
          "internalType": "address",
          "name": "initialOwner",
          "type": "address"
        }
      ],
      "name": "initialize",
      "outputs": [],
      "stateMutability": "nonpayable",
      "type": "function"
    },
    {
      "inputs": [],
      "name": "lastUpdateTime",
      "outputs": [
        {
          "internalType": "uint256",
          "name": "",
          "type": "uint256"
        }
      ],
      "stateMutability": "view",
      "type": "function"
    },
    {
      "inputs": [],
      "name": "owner",
      "outputs": [
        {
          "internalType": "address",
          "name": "",
          "type": "address"
        }
      ],
      "stateMutability": "view",
      "type": "function"
    },
    {
      "inputs": [],
      "name": "pause",
      "outputs": [],
      "stateMutability": "nonpayable",
      "type": "function"
    },
    {
      "inputs": [],
      "name": "paused",
      "outputs": [
        {
          "internalType": "bool",
          "name": "",
          "type": "bool"
        }
      ],
      "stateMutability": "view",
      "type": "function"
    },
    {
      "inputs": [],
      "name": "proxiableUUID",
      "outputs": [
        {
          "internalType": "bytes32",
          "name": "",
          "type": "bytes32"
        }
      ],
      "stateMutability": "view",
      "type": "function"
    },
    {
      "inputs": [],
      "name": "renounceOwnership",
      "outputs": [],
      "stateMutability": "nonpayable",
      "type": "function"
    },
    {
      "inputs": [],
      "name": "rewardPerToken",
      "outputs": [
        {
          "internalType": "uint256",
          "name": "",
          "type": "uint256"
        }
      ],
      "stateMutability": "view",
      "type": "function"
    },
    {
      "inputs": [],
      "name": "rewardPerTokenStored",
      "outputs": [
        {
          "internalType": "uint256",
          "name": "",
          "type": "uint256"
        }
      ],
      "stateMutability": "view",
      "type": "function"
    },
    {
      "inputs": [],
      "name": "rewardRate",
      "outputs": [
        {
          "internalType": "uint256",
          "name": "",
          "type": "uint256"
        }
      ],
      "stateMutability": "view",
      "type": "function"
    },
    {
      "inputs": [],
      "name": "rewardToken",
      "outputs": [
        {
          "internalType": "contract ERC20Upgradeable",
          "name": "",
          "type": "address"
        }
      ],
      "stateMutability": "view",
      "type": "function"
    },
    {
      "inputs": [
        {
          "internalType": "address",
          "name": "",
          "type": "address"
        }
      ],
      "name": "rewards",
      "outputs": [
        {
          "internalType": "uint256",
          "name": "",
          "type": "uint256"
        }
      ],
      "stateMutability": "view",
      "type": "function"
    },
    {
      "inputs": [
        {
          "internalType": "uint256",
          "name": "_rewardRate",
          "type": "uint256"
        }
      ],
      "name": "setRewardRate",
      "outputs": [],
      "stateMutability": "nonpayable",
      "type": "function"
    },
    {
      "inputs": [
        {
          "internalType": "uint256",
          "name": "amount",
          "type": "uint256"
        }
      ],
      "name": "stake",
      "outputs": [],
      "stateMutability": "nonpayable",
      "type": "function"
    },
    {
      "inputs": [],
      "name": "stakingToken",
      "outputs": [
        {
          "internalType": "contract ERC20Upgradeable",
          "name": "",
          "type": "address"
        }
      ],
      "stateMutability": "view",
      "type": "function"
    },
    {
      "inputs": [],
      "name": "totalSupply",
      "outputs": [
        {
          "internalType": "uint256",
          "name": "",
          "type": "uint256"
        }
      ],
      "stateMutability": "view",
      "type": "function"
    },
    {
      "inputs": [
        {
          "internalType": "address",
          "name": "newOwner",
          "type": "address"
        }
      ],
      "name": "transferOwnership",
      "outputs": [],
      "stateMutability": "nonpayable",
      "type": "function"
    },
    {
      "inputs": [],
      "name": "unpause",
      "outputs": [],
      "stateMutability": "nonpayable",
      "type": "function"
    },
    {
      "inputs": [
        {
          "internalType": "address",
          "name": "newImplementation",
          "type": "address"
        },
        {
          "internalType": "bytes",
          "name": "data",
          "type": "bytes"
        }
      ],
      "name": "upgradeToAndCall",
      "outputs": [],
      "stateMutability": "payable",
      "type": "function"
    },
    {
      "inputs": [
        {
          "internalType": "address",
          "name": "",
          "type": "address"
        }
      ],
      "name": "userRewardPerTokenPaid",
      "outputs": [
        {
          "internalType": "uint256",
          "name": "",
          "type": "uint256"
        }
      ],
      "stateMutability": "view",
      "type": "function"
    },
    {
      "inputs": [
        {
          "internalType": "uint256",
          "name": "amount",
          "type": "uint256"
        }
      ],
      "name": "withdraw",
      "outputs": [],
      "stateMutability": "nonpayable",
      "type": "function"
    }
  ],
  "bytecode": "0x60a06040523060805234801561001457600080fd5b5061001d610022565b6100d4565b7ff0c57e16840df040f15088dc2f81fe391c3923bec73e23a9662efc9c229c6a00805468010000000000000000900460ff16156100725760405163f92ee8a960e01b815260040160405180910390fd5b80546001600160401b03908116146100d15780546001600160401b0319166001600160401b0390811782556040519081527fc7f505b2f371ae2175ee4913f4499e1f2633a7b5936321eed1cdaeb6115181d29060200160405180910390a15b50565b60805161176a6100fd60003960008181610ee901528181610f120152611058015261176a6000f3fe6080604052600436106101655760003560e01c80637b0a47ee116100d1578063ad3cb1cc1161008a578063cd3daf9d11610064578063cd3daf9d14610447578063df136d651461045c578063f2fde38b14610472578063f7c618c11461049257600080fd5b8063ad3cb1cc146103d3578063be20309414610411578063c8f33c911461043157600080fd5b80637b0a47ee146102fe5780638456cb59146103145780638b876347146103295780638da5cb5b146103565780639e447fc614610393578063a694fc3a146103b357600080fd5b80633f4ba83a116101235780633f4ba83a146102445780634f1ef2861461025957806352d1902d1461026c5780635c975abb14610281578063715018a6146102b157806372f702f3146102c657600080fd5b80628cc2621461016a5780630700037d1461019d57806318160ddd146101ca57806327e235e3146101e05780632e1a7d4d1461020d5780633d18b9121461022f575b600080fd5b34801561017657600080fd5b5061018a610185366004611458565b6104b2565b6040519081526020015b60405180910390f35b3480156101a957600080fd5b5061018a6101b8366004611458565b60066020526000908152604090205481565b3480156101d657600080fd5b5061018a60075481565b3480156101ec57600080fd5b5061018a6101fb366004611458565b60086020526000908152604090205481565b34801561021957600080fd5b5061022d610228366004611473565b61052f565b005b34801561023b57600080fd5b5061022d610735565b34801561025057600080fd5b5061022d610881565b61022d6102673660046114a2565b610891565b34801561027857600080fd5b5061018a6108b0565b34801561028d57600080fd5b506000805160206116f58339815191525460ff166040519015158152602001610194565b3480156102bd57600080fd5b5061022d6108cd565b3480156102d257600080fd5b506000546102e6906001600160a01b031681565b6040516001600160a01b039091168152602001610194565b34801561030a57600080fd5b5061018a60025481565b34801561032057600080fd5b5061022d6108df565b34801561033557600080fd5b5061018a610344366004611458565b60056020526000908152604090205481565b34801561036257600080fd5b507f9016d09d72d40fdae2fd8ceac6b6234c7706214fd39c1cd1e609a0528c199300546001600160a01b03166102e6565b34801561039f57600080fd5b5061022d6103ae366004611473565b6108ef565b3480156103bf57600080fd5b5061022d6103ce366004611473565b610988565b3480156103df57600080fd5b50610404604051806040016040528060058152602001640352e302e360dc1b81525081565b6040516101949190611588565b34801561041d57600080fd5b5061022d61042c3660046115bb565b610b16565b34801561043d57600080fd5b5061018a60035481565b34801561045357600080fd5b5061018a610d3e565b34801561046857600080fd5b5061018a60045481565b34801561047e57600080fd5b5061022d61048d366004611458565b610d9c565b34801561049e57600080fd5b506001546102e6906001600160a01b031681565b6001600160a01b0381166000908152600660209081526040808320546005909252822054670de0b6b3a7640000906104e8610d3e565b6104f2919061161e565b6001600160a01b0385166000908152600860205260409020546105159190611631565b61051f9190611648565b610529919061166a565b92915050565b610537610dd7565b33610540610d3e565b600455426003556001600160a01b0381161561058b5761055f816104b2565b6001600160a01b0382166000908152600660209081526040808320939093556004546005909152919020555b600082116105d45760405162461bcd60e51b8152602060048201526011602482015270043616e6e6f74207769746864726177203607c1b60448201526064015b60405180910390fd5b336000908152600860205260409020548211156106335760405162461bcd60e51b815260206004820152601a60248201527f496e73756666696369656e74207374616b656420616d6f756e7400000000000060448201526064016105cb565b8160076000828254610645919061161e565b9091555050336000908152600860205260408120805484929061066990849061161e565b909155505060005460405163a9059cbb60e01b8152336004820152602481018490526001600160a01b039091169063a9059cbb906044016020604051808303816000875af11580156106bf573d6000803e3d6000fd5b505050506040513d601f19601f820116820180604052508101906106e3919061167d565b5060405182815233907f7084f5476618d8e60b11ef0d7d3f06914655adb8793e28ff7f018d4c76d505d5906020015b60405180910390a250610732600160008051602061171583398151915255565b50565b61073d610dd7565b33610746610d3e565b600455426003556001600160a01b0381161561079157610765816104b2565b6001600160a01b0382166000908152600660209081526040808320939093556004546005909152919020555b336000908152600660205260409020548015610866573360008181526006602052604080822091909155600154905163a9059cbb60e01b81526004810192909252602482018390526001600160a01b03169063a9059cbb906044016020604051808303816000875af115801561080b573d6000803e3d6000fd5b505050506040513d601f19601f8201168201806040525081019061082f919061167d565b5060405181815233907fe2403640ba68fed3a2f88b7557551d1993f84b99bb10ff833f0cf8db0c5e04869060200160405180910390a25b505061087f600160008051602061171583398151915255565b565b610889610e23565b61087f610e7e565b610899610ede565b6108a282610f83565b6108ac8282610f8b565b5050565b60006108ba61104d565b506000805160206116d583398151915290565b6108d5610e23565b61087f6000611096565b6108e7610e23565b61087f611107565b6108f7610e23565b6000610901610d3e565b600455426003556001600160a01b0381161561094c57610920816104b2565b6001600160a01b0382166000908152600660209081526040808320939093556004546005909152919020555b60028290556040518281527f41d466ebd06fb97e7786086ac8b69b7eb7da798592036251291d34e9791cde019060200160405180910390a15050565b610990610dd7565b610998611150565b336109a1610d3e565b600455426003556001600160a01b038116156109ec576109c0816104b2565b6001600160a01b0382166000908152600660209081526040808320939093556004546005909152919020555b60008211610a2d5760405162461bcd60e51b815260206004820152600e60248201526d043616e6e6f74207374616b6520360941b60448201526064016105cb565b8160076000828254610a3f919061166a565b90915550503360009081526008602052604081208054849290610a6390849061166a565b90915550506000546040516323b872dd60e01b8152336004820152306024820152604481018490526001600160a01b03909116906323b872dd906064016020604051808303816000875af1158015610abf573d6000803e3d6000fd5b505050506040513d601f19601f82011682018060405250810190610ae3919061167d565b5060405182815233907f9e71bc8eea02a63969f509818f2dafb9254532904319f9dbda79b67bd34a5f3d90602001610712565b7ff0c57e16840df040f15088dc2f81fe391c3923bec73e23a9662efc9c229c6a008054600160401b810460ff16159067ffffffffffffffff16600081158015610b5c5750825b905060008267ffffffffffffffff166001148015610b795750303b155b905081158015610b87575080155b15610ba55760405163f92ee8a960e01b815260040160405180910390fd5b845467ffffffffffffffff191660011785558315610bcf57845460ff60401b1916600160401b1785555b610bd886611181565b610be0611192565b610be86111a2565b610bf06111b2565b6001600160a01b038916610c525760405162461bcd60e51b8152602060048201526024808201527f5374616b696e6720746f6b656e2063616e6e6f74206265207a65726f206164646044820152637265737360e01b60648201526084016105cb565b6001600160a01b038816610cb45760405162461bcd60e51b815260206004820152602360248201527f52657761726420746f6b656e2063616e6e6f74206265207a65726f206164647260448201526265737360e81b60648201526084016105cb565b600080546001600160a01b03808c166001600160a01b03199283161790925560018054928b16929091169190911790556002879055426003558315610d3357845460ff60401b19168555604051600181527fc7f505b2f371ae2175ee4913f4499e1f2633a7b5936321eed1cdaeb6115181d29060200160405180910390a15b505050505050505050565b6000600754600003610d51575060045490565b600754600254600354610d64904261161e565b610d6e9190611631565b610d8090670de0b6b3a7640000611631565b610d8a9190611648565b600454610d97919061166a565b905090565b610da4610e23565b6001600160a01b038116610dce57604051631e4fbdf760e01b8152600060048201526024016105cb565b61073281611096565b600080516020611715833981519152805460011901610e0957604051633ee5aeb560e01b815260040160405180910390fd5b60029055565b600160008051602061171583398151915255565b33610e557f9016d09d72d40fdae2fd8ceac6b6234c7706214fd39c1cd1e609a0528c199300546001600160a01b031690565b6001600160a01b03161461087f5760405163118cdaa760e01b81523360048201526024016105cb565b610e866111ba565b6000805160206116f5833981519152805460ff191681557f5db9ee0a495bf2e6ff9c91a7834c1ba4fdd244a5e8aa4e537bd38aeae4b073aa335b6040516001600160a01b03909116815260200160405180910390a150565b306001600160a01b037f0000000000000000000000000000000000000000000000000000000000000000161480610f6557507f00000000000000000000000000000000000000000000000000000000000000006001600160a01b0316610f596000805160206116d5833981519152546001600160a01b031690565b6001600160a01b031614155b1561087f5760405163703e46dd60e11b815260040160405180910390fd5b610732610e23565b816001600160a01b03166352d1902d6040518163ffffffff1660e01b8152600401602060405180830381865afa925050508015610fe5575060408051601f3d908101601f19168201909252610fe29181019061169f565b60015b61100d57604051634c9c8ce360e01b81526001600160a01b03831660048201526024016105cb565b6000805160206116d5833981519152811461103e57604051632a87526960e21b8152600481018290526024016105cb565b61104883836111ea565b505050565b306001600160a01b037f0000000000000000000000000000000000000000000000000000000000000000161461087f5760405163703e46dd60e11b815260040160405180910390fd5b7f9016d09d72d40fdae2fd8ceac6b6234c7706214fd39c1cd1e609a0528c19930080546001600160a01b031981166001600160a01b03848116918217845560405192169182907f8be0079c531659141344cd1fd0a4f28419497f9722a3daafe3b4186f6b6457e090600090a3505050565b61110f611150565b6000805160206116f5833981519152805460ff191660011781557f62e78cea01bee320cd4e420270b5ea74000d11b0c9f74754ebdbfc544b05a25833610ec0565b6000805160206116f58339815191525460ff161561087f5760405163d93c066560e01b815260040160405180910390fd5b611189611240565b61073281611289565b61119a611240565b61087f611291565b6111aa611240565b61087f611299565b61087f611240565b6000805160206116f58339815191525460ff1661087f57604051638dfc202b60e01b815260040160405180910390fd5b6111f3826112ba565b6040516001600160a01b038316907fbc7cd75a20ee27fd9adebab32041f755214dbc6bffa90cc0225b39da2e5c2d3b90600090a280511561123857611048828261131f565b6108ac611395565b7ff0c57e16840df040f15088dc2f81fe391c3923bec73e23a9662efc9c229c6a0054600160401b900460ff1661087f57604051631afcd79f60e31b815260040160405180910390fd5b610da4611240565b610e0f611240565b6112a1611240565b6000805160206116f5833981519152805460ff19169055565b806001600160a01b03163b6000036112f057604051634c9c8ce360e01b81526001600160a01b03821660048201526024016105cb565b6000805160206116d583398151915280546001600160a01b0319166001600160a01b0392909216919091179055565b6060600080846001600160a01b03168460405161133c91906116b8565b600060405180830381855af49150503d8060008114611377576040519150601f19603f3d011682016040523d82523d6000602084013e61137c565b606091505b509150915061138c8583836113b4565b95945050505050565b341561087f5760405163b398979f60e01b815260040160405180910390fd5b6060826113c9576113c482611413565b61140c565b81511580156113e057506001600160a01b0384163b155b1561140957604051639996b31560e01b81526001600160a01b03851660048201526024016105cb565b50805b9392505050565b8051156114235780518082602001fd5b604051630a12f52160e11b815260040160405180910390fd5b80356001600160a01b038116811461145357600080fd5b919050565b60006020828403121561146a57600080fd5b61140c8261143c565b60006020828403121561148557600080fd5b5035919050565b634e487b7160e01b600052604160045260246000fd5b600080604083850312156114b557600080fd5b6114be8361143c565b9150602083013567ffffffffffffffff808211156114db57600080fd5b818501915085601f8301126114ef57600080fd5b8135818111156115015761150161148c565b604051601f8201601f19908116603f011681019083821181831017156115295761152961148c565b8160405282815288602084870101111561154257600080fd5b8260208601602083013760006020848301015280955050505050509250929050565b60005b8381101561157f578181015183820152602001611567565b50506000910152565b60208152600082518060208401526115a7816040850160208701611564565b601f01601f19169190910160400192915050565b600080600080608085870312156115d157600080fd5b6115da8561143c565b93506115e86020860161143c565b9250604085013591506115fd6060860161143c565b905092959194509250565b634e487b7160e01b600052601160045260246000fd5b8181038181111561052957610529611608565b808202811582820484141761052957610529611608565b60008261166557634e487b7160e01b600052601260045260246000fd5b500490565b8082018082111561052957610529611608565b60006020828403121561168f57600080fd5b8151801515811461140c57600080fd5b6000602082840312156116b157600080fd5b5051919050565b600082516116ca818460208701611564565b919091019291505056fe360894a13ba1a3210667c828492db98dca3e2076cc3735a920a3ca505d382bbccd5ed15c6e187e77e9aee88184c21f4f2182ab5827cb3b7e07fbedcd63f033009b779b17422d0df92223018b32b4d1fa46e071723d6817e2486d003becc55f00a26469706673582212200da7bf26c75d4a4ddc775f2673c7d8c2d5d7bdba473d6233e0304d97961e432364736f6c63430008140033",
  "linkReferences": {},
  "deployedLinkReferences": {}
}