{
  "_format": "hh-sol-artifact-1",
  "contractName": "StakingUpgradeableV2",
  "sourceName": "contracts/StakingUpgradeableV2.sol",
  "abi": [
    {
      "inputs": [],
      "stateMutability": "nonpayable",
      "type": "constructor"
    },
    {
      "inputs": [
        {
          "internalType": "address",
          "name": "target",
          "type": "address"
        }
      ],
      "name": "AddressEmptyCode",
      "type": "error"
    },
    {
      "inputs": [
        {
          "internalType": "address",
          "name": "implementation",
          "type": "address"
        }
      ],
      "name": "ERC1967InvalidImplementation",
      "type": "error"
    },
    {
      "inputs": [],
      "name": "ERC1967NonPayable",
      "type": "error"
    },
    {
      "inputs": [],
      "name": "EnforcedPause",
      "type": "error"
    },
    {
      "inputs": [],
      "name": "ExpectedPause",
      "type": "error"
    },
    {
      "inputs": [],
      "name": "FailedInnerCall",
      "type": "error"
    },
    {
      "inputs": [],
      "name": "InvalidInitialization",
      "type": "error"
    },
    {
      "inputs": [],
      "name": "NotInitializing",
      "type": "error"
    },
    {
      "inputs": [
        {
          "internalType": "address",
          "name": "owner",
          "type": "address"
        }
      ],
      "name": "OwnableInvalidOwner",
      "type": "error"
    },
    {
      "inputs": [
        {
          "internalType": "address",
          "name": "account",
          "type": "address"
        }
      ],
      "name": "OwnableUnauthorizedAccount",
      "type": "error"
    },
    {
      "inputs": [],
      "name": "ReentrancyGuardReentrantCall",
      "type": "error"
    },
    {
      "inputs": [],
      "name": "UUPSUnauthorizedCallContext",
      "type": "error"
    },
    {
      "inputs": [
        {
          "internalType": "bytes32",
          "name": "slot",
          "type": "bytes32"
        }
      ],
      "name": "UUPSUnsupportedProxiableUUID",
      "type": "error"
    },
    {
      "anonymous": false,
      "inputs": [
        {
          "indexed": true,
          "internalType": "address",
          "name": "user",
          "type": "address"
        },
        {
          "indexed": false,
          "internalType": "uint256",
          "name": "amount",
          "type": "uint256"
        }
      ],
      "name": "EarlyWithdrawalFeeCollected",
      "type": "event"
    },
    {
      "anonymous": false,
      "inputs": [
        {
          "indexed": false,
          "internalType": "uint256",
          "name": "newFee",
          "type": "uint256"
        }
      ],
      "name": "EarlyWithdrawalFeeUpdated",
      "type": "event"
    },
    {
      "anonymous": false,
      "inputs": [
        {
          "indexed": false,
          "internalType": "address",
          "name": "newCollector",
          "type": "address"
        }
      ],
      "name": "FeeCollectorUpdated",
      "type": "event"
    },
    {
      "anonymous": false,
      "inputs": [
        {
          "indexed": false,
          "internalType": "uint64",
          "name": "version",
          "type": "uint64"
        }
      ],
      "name": "Initialized",
      "type": "event"
    },
    {
      "anonymous": false,
      "inputs": [
        {
          "indexed": false,
          "internalType": "uint256",
          "name": "newDuration",
          "type": "uint256"
        }
      ],
      "name": "LockDurationUpdated",
      "type": "event"
    },
    {
      "anonymous": false,
      "inputs": [
        {
          "indexed": true,
          "internalType": "address",
          "name": "previousOwner",
          "type": "address"
        },
        {
          "indexed": true,
          "internalType": "address",
          "name": "newOwner",
          "type": "address"
        }
      ],
      "name": "OwnershipTransferred",
      "type": "event"
    },
    {
      "anonymous": false,
      "inputs": [
        {
          "indexed": false,
          "internalType": "address",
          "name": "account",
          "type": "address"
        }
      ],
      "name": "Paused",
      "type": "event"
    },
    {
      "anonymous": false,
      "inputs": [
        {
          "indexed": true,
          "internalType": "address",
          "name": "user",
          "type": "address"
        },
        {
          "indexed": false,
          "internalType": "uint256",
          "name": "reward",
          "type": "uint256"
        }
      ],
      "name": "RewardPaid",
      "type": "event"
    },
    {
      "anonymous": false,
      "inputs": [
        {
          "indexed": false,
          "internalType": "uint256",
          "name": "newRate",
          "type": "uint256"
        }
      ],
      "name": "RewardRateUpdated",
      "type": "event"
    },
    {
      "anonymous": false,
      "inputs": [
        {
          "indexed": true,
          "internalType": "address",
          "name": "user",
          "type": "address"
        },
        {
          "indexed": false,
          "internalType": "uint256",
          "name": "amount",
          "type": "uint256"
        }
      ],
      "name": "Staked",
      "type": "event"
    },
    {
      "anonymous": false,
      "inputs": [
        {
          "indexed": false,
          "internalType": "address",
          "name": "account",
          "type": "address"
        }
      ],
      "name": "Unpaused",
      "type": "event"
    },
    {
      "anonymous": false,
      "inputs": [
        {
          "indexed": true,
          "internalType": "address",
          "name": "implementation",
          "type": "address"
        }
      ],
      "name": "Upgraded",
      "type": "event"
    },
    {
      "anonymous": false,
      "inputs": [
        {
          "indexed": true,
          "internalType": "address",
          "name": "user",
          "type": "address"
        },
        {
          "indexed": false,
          "internalType": "uint256",
          "name": "amount",
          "type": "uint256"
        }
      ],
      "name": "Withdrawn",
      "type": "event"
    },
    {
      "inputs": [],
      "name": "UPGRADE_INTERFACE_VERSION",
      "outputs": [
        {
          "internalType": "string",
          "name": "",
          "type": "string"
        }
      ],
      "stateMutability": "view",
      "type": "function"
    },
    {
      "inputs": [
        {
          "internalType": "address",
          "name": "",
          "type": "address"
        }
      ],
      "name": "balances",
      "outputs": [
        {
          "internalType": "uint256",
          "name": "",
          "type": "uint256"
        }
      ],
      "stateMutability": "view",
      "type": "function"
    },
    {
      "inputs": [
        {
          "internalType": "address[]",
          "name": "recipients",
          "type": "address[]"
        },
        {
          "internalType": "uint256[]",
          "name": "amounts",
          "type": "uint256[]"
        }
      ],
      "name": "batchStake",
      "outputs": [],
      "stateMutability": "nonpayable",
      "type": "function"
    },
    {
      "inputs": [],
      "name": "earlyWithdrawalFee",
      "outputs": [
        {
          "internalType": "uint256",
          "name": "",
          "type": "uint256"
        }
      ],
      "stateMutability": "view",
      "type": "function"
    },
    {
      "inputs": [
        {
          "internalType": "address",
          "name": "account",
          "type": "address"
        }
      ],
      "name": "earned",
      "outputs": [
        {
          "internalType": "uint256",
          "name": "",
          "type": "uint256"
        }
      ],
      "stateMutability": "view",
      "type": "function"
    },
    {
      "inputs": [],
      "name": "feeCollector",
      "outputs": [
        {
          "internalType": "address",
          "name": "",
          "type": "address"
        }
      ],
      "stateMutability": "view",
      "type": "function"
    },
    {
      "inputs": [],
      "name": "getReward",
      "outputs": [],
      "stateMutability": "nonpayable",
      "type": "function"
    },
    {
      "inputs": [
        {
          "internalType": "address",
          "name": "_stakingToken",
          "type": "address"
        },
        {
          "internalType": "address",
          "name": "_rewardToken",
          "type": "address"
        },
        {
          "internalType": "uint256",
          "name": "_rewardRate",
          "type": "uint256"
        },
        {
          "internalType": "address",
          "name": "initialOwner",
          "type": "address"
        }
      ],
      "name": "initialize",
      "outputs": [],
      "stateMutability": "nonpayable",
      "type": "function"
    },
    {
      "inputs": [
        {
          "internalType": "uint256",
          "name": "_lockDuration",
          "type": "uint256"
        },
        {
          "internalType": "uint256",
          "name": "_earlyWithdrawalFee",
          "type": "uint256"
        },
        {
          "internalType": "address",
          "name": "_feeCollector",
          "type": "address"
        }
      ],
      "name": "initializeV2",
      "outputs": [],
      "stateMutability": "nonpayable",
      "type": "function"
    },
    {
      "inputs": [],
      "name": "lastUpdateTime",
      "outputs": [
        {
          "internalType": "uint256",
          "name": "",
          "type": "uint256"
        }
      ],
      "stateMutability": "view",
      "type": "function"
    },
    {
      "inputs": [],
      "name": "lockDuration",
      "outputs": [
        {
          "internalType": "uint256",
          "name": "",
          "type": "uint256"
        }
      ],
      "stateMutability": "view",
      "type": "function"
    },
    {
      "inputs": [
        {
          "internalType": "address",
          "name": "user",
          "type": "address"
        }
      ],
      "name": "lockTimeRemaining",
      "outputs": [
        {
          "internalType": "uint256",
          "name": "",
          "type": "uint256"
        }
      ],
      "stateMutability": "view",
      "type": "function"
    },
    {
      "inputs": [],
      "name": "owner",
      "outputs": [
        {
          "internalType": "address",
          "name": "",
          "type": "address"
        }
      ],
      "stateMutability": "view",
      "type": "function"
    },
    {
      "inputs": [],
      "name": "pause",
      "outputs": [],
      "stateMutability": "nonpayable",
      "type": "function"
    },
    {
      "inputs": [],
      "name": "paused",
      "outputs": [
        {
          "internalType": "bool",
          "name": "",
          "type": "bool"
        }
      ],
      "stateMutability": "view",
      "type": "function"
    },
    {
      "inputs": [],
      "name": "proxiableUUID",
      "outputs": [
        {
          "internalType": "bytes32",
          "name": "",
          "type": "bytes32"
        }
      ],
      "stateMutability": "view",
      "type": "function"
    },
    {
      "inputs": [],
      "name": "renounceOwnership",
      "outputs": [],
      "stateMutability": "nonpayable",
      "type": "function"
    },
    {
      "inputs": [],
      "name": "rewardPerToken",
      "outputs": [
        {
          "internalType": "uint256",
          "name": "",
          "type": "uint256"
        }
      ],
      "stateMutability": "view",
      "type": "function"
    },
    {
      "inputs": [],
      "name": "rewardPerTokenStored",
      "outputs": [
        {
          "internalType": "uint256",
          "name": "",
          "type": "uint256"
        }
      ],
      "stateMutability": "view",
      "type": "function"
    },
    {
      "inputs": [],
      "name": "rewardRate",
      "outputs": [
        {
          "internalType": "uint256",
          "name": "",
          "type": "uint256"
        }
      ],
      "stateMutability": "view",
      "type": "function"
    },
    {
      "inputs": [],
      "name": "rewardToken",
      "outputs": [
        {
          "internalType": "contract ERC20Upgradeable",
          "name": "",
          "type": "address"
        }
      ],
      "stateMutability": "view",
      "type": "function"
    },
    {
      "inputs": [
        {
          "internalType": "address",
          "name": "",
          "type": "address"
        }
      ],
      "name": "rewards",
      "outputs": [
        {
          "internalType": "uint256",
          "name": "",
          "type": "uint256"
        }
      ],
      "stateMutability": "view",
      "type": "function"
    },
    {
      "inputs": [
        {
          "internalType": "uint256",
          "name": "_earlyWithdrawalFee",
          "type": "uint256"
        }
      ],
      "name": "setEarlyWithdrawalFee",
      "outputs": [],
      "stateMutability": "nonpayable",
      "type": "function"
    },
    {
      "inputs": [
        {
          "internalType": "address",
          "name": "_feeCollector",
          "type": "address"
        }
      ],
      "name": "setFeeCollector",
      "outputs": [],
      "stateMutability": "nonpayable",
      "type": "function"
    },
    {
      "inputs": [
        {
          "internalType": "uint256",
          "name": "_lockDuration",
          "type": "uint256"
        }
      ],
      "name": "setLockDuration",
      "outputs": [],
      "stateMutability": "nonpayable",
      "type": "function"
    },
    {
      "inputs": [
        {
          "internalType": "uint256",
          "name": "_rewardRate",
          "type": "uint256"
        }
      ],
      "name": "setRewardRate",
      "outputs": [],
      "stateMutability": "nonpayable",
      "type": "function"
    },
    {
      "inputs": [
        {
          "internalType": "uint256",
          "name": "amount",
          "type": "uint256"
        }
      ],
      "name": "stake",
      "outputs": [],
      "stateMutability": "nonpayable",
      "type": "function"
    },
    {
      "inputs": [
        {
          "internalType": "address",
          "name": "",
          "type": "address"
        }
      ],
      "name": "stakingTime",
      "outputs": [
        {
          "internalType": "uint256",
          "name": "",
          "type": "uint256"
        }
      ],
      "stateMutability": "view",
      "type": "function"
    },
    {
      "inputs": [],
      "name": "stakingToken",
      "outputs": [
        {
          "internalType": "contract ERC20Upgradeable",
          "name": "",
          "type": "address"
        }
      ],
      "stateMutability": "view",
      "type": "function"
    },
    {
      "inputs": [],
      "name": "totalSupply",
      "outputs": [
        {
          "internalType": "uint256",
          "name": "",
          "type": "uint256"
        }
      ],
      "stateMutability": "view",
      "type": "function"
    },
    {
      "inputs": [
        {
          "internalType": "address",
          "name": "newOwner",
          "type": "address"
        }
      ],
      "name": "transferOwnership",
      "outputs": [],
      "stateMutability": "nonpayable",
      "type": "function"
    },
    {
      "inputs": [],
      "name": "unpause",
      "outputs": [],
      "stateMutability": "nonpayable",
      "type": "function"
    },
    {
      "inputs": [
        {
          "internalType": "address",
          "name": "newImplementation",
          "type": "address"
        },
        {
          "internalType": "bytes",
          "name": "data",
          "type": "bytes"
        }
      ],
      "name": "upgradeToAndCall",
      "outputs": [],
      "stateMutability": "payable",
      "type": "function"
    },
    {
      "inputs": [
        {
          "internalType": "address",
          "name": "",
          "type": "address"
        }
      ],
      "name": "userRewardPerTokenPaid",
      "outputs": [
        {
          "internalType": "uint256",
          "name": "",
          "type": "uint256"
        }
      ],
      "stateMutability": "view",
      "type": "function"
    },
    {
      "inputs": [
        {
          "internalType": "uint256",
          "name": "amount",
          "type": "uint256"
        }
      ],
      "name": "withdraw",
      "outputs": [],
      "stateMutability": "nonpayable",
      "type": "function"
    }
  ],
  "bytecode": "0x60a06040523060805234801561001457600080fd5b5061001d610022565b6100d4565b7ff0c57e16840df040f15088dc2f81fe391c3923bec73e23a9662efc9c229c6a00805468010000000000000000900460ff16156100725760405163f92ee8a960e01b815260040160405180910390fd5b80546001600160401b03908116146100d15780546001600160401b0319166001600160401b0390811782556040519081527fc7f505b2f371ae2175ee4913f4499e1f2633a7b5936321eed1cdaeb6115181d29060200160405180910390a15b50565b60805161236c620000fe600039600081816119bf015281816119e80152611b2e015261236c6000f3fe6080604052600436106102035760003560e01c806372f702f311610118578063b62b14e8116100a0578063cd3daf9d1161006f578063cd3daf9d146105fe578063df136d6514610613578063f2fde38b14610629578063f7c618c114610649578063f826ed2e1461066957600080fd5b8063b62b14e814610588578063be203094146105a8578063c415b95c146105c8578063c8f33c91146105e857600080fd5b80638da5cb5b116100e75780638da5cb5b146104ad5780639e447fc6146104ea578063a42dce801461050a578063a694fc3a1461052a578063ad3cb1cc1461054a57600080fd5b806372f702f31461041d5780637b0a47ee146104555780638456cb591461046b5780638b8763471461048057600080fd5b806332b95a6f1161019b5780634f1ef2861161016a5780634f1ef2861461038357806352d1902d14610396578063583d42fd146103ab5780635c975abb146103d8578063715018a61461040857600080fd5b806332b95a6f146103195780633d18b912146103395780633f4ba83a1461034e5780634eb665af1461036357600080fd5b806318160ddd116101d757806318160ddd146102945780631f51bf0c146102aa57806327e235e3146102cc5780632e1a7d4d146102f957600080fd5b80628cc26214610208578063045544431461023b5780630700037d1461025157806316330d401461027e575b600080fd5b34801561021457600080fd5b50610228610223366004611efa565b610689565b6040519081526020015b60405180910390f35b34801561024757600080fd5b5061022860095481565b34801561025d57600080fd5b5061022861026c366004611efa565b60066020526000908152604090205481565b34801561028a57600080fd5b50610228600b5481565b3480156102a057600080fd5b5061022860075481565b3480156102b657600080fd5b506102ca6102c5366004611f15565b610706565b005b3480156102d857600080fd5b506102286102e7366004611efa565b60086020526000908152604090205481565b34801561030557600080fd5b506102ca610314366004611f4a565b610879565b34801561032557600080fd5b506102ca610334366004611faf565b610c0d565b34801561034557600080fd5b506102ca610fe6565b34801561035a57600080fd5b506102ca611132565b34801561036f57600080fd5b506102ca61037e366004611f4a565b611142565b6102ca610391366004612031565b611186565b3480156103a257600080fd5b506102286111a5565b3480156103b757600080fd5b506102286103c6366004611efa565b600a6020526000908152604090205481565b3480156103e457600080fd5b506000805160206122f78339815191525460ff166040519015158152602001610232565b34801561041457600080fd5b506102ca6111c2565b34801561042957600080fd5b5060005461043d906001600160a01b031681565b6040516001600160a01b039091168152602001610232565b34801561046157600080fd5b5061022860025481565b34801561047757600080fd5b506102ca6111d4565b34801561048c57600080fd5b5061022861049b366004611efa565b60056020526000908152604090205481565b3480156104b957600080fd5b507f9016d09d72d40fdae2fd8ceac6b6234c7706214fd39c1cd1e609a0528c199300546001600160a01b031661043d565b3480156104f657600080fd5b506102ca610505366004611f4a565b6111e4565b34801561051657600080fd5b506102ca610525366004611efa565b61127d565b34801561053657600080fd5b506102ca610545366004611f4a565b6112f9565b34801561055657600080fd5b5061057b604051806040016040528060058152602001640352e302e360dc1b81525081565b6040516102329190612117565b34801561059457600080fd5b506102286105a3366004611efa565b611498565b3480156105b457600080fd5b506102ca6105c336600461214a565b6114e5565b3480156105d457600080fd5b50600c5461043d906001600160a01b031681565b3480156105f457600080fd5b5061022860035481565b34801561060a57600080fd5b5061022861170d565b34801561061f57600080fd5b5061022860045481565b34801561063557600080fd5b506102ca610644366004611efa565b61176b565b34801561065557600080fd5b5060015461043d906001600160a01b031681565b34801561067557600080fd5b506102ca610684366004611f4a565b6117a6565b6001600160a01b0381166000908152600660209081526040808320546005909252822054670de0b6b3a7640000906106bf61170d565b6106c991906121ad565b6001600160a01b0385166000908152600860205260409020546106ec91906121c0565b6106f691906121d7565b61070091906121f9565b92915050565b7ff0c57e16840df040f15088dc2f81fe391c3923bec73e23a9662efc9c229c6a00805460029190600160401b900460ff16806107505750805467ffffffffffffffff808416911610155b1561076e5760405163f92ee8a960e01b815260040160405180910390fd5b805468ffffffffffffffffff191667ffffffffffffffff831617600160401b1781556103e88411156107df5760405162461bcd60e51b81526020600482015260156024820152744665652063616e6e6f74206578636565642031302560581b60448201526064015b60405180910390fd5b6001600160a01b0383166108055760405162461bcd60e51b81526004016107d69061220c565b6009859055600b849055600c80546001600160a01b0319166001600160a01b038516179055805460ff60401b1916815560405167ffffffffffffffff831681527fc7f505b2f371ae2175ee4913f4499e1f2633a7b5936321eed1cdaeb6115181d29060200160405180910390a15050505050565b61088161182d565b3361088a61170d565b600455426003556001600160a01b038116156108d5576108a981610689565b6001600160a01b0382166000908152600660209081526040808320939093556004546005909152919020555b600082116109195760405162461bcd60e51b8152602060048201526011602482015270043616e6e6f74207769746864726177203607c1b60448201526064016107d6565b336000908152600860205260409020548211156109785760405162461bcd60e51b815260206004820152601a60248201527f496e73756666696369656e74207374616b656420616d6f756e7400000000000060448201526064016107d6565b816007600082825461098a91906121ad565b909155505033600090815260086020526040812080548492906109ae9084906121ad565b9091555050600954336000908152600a60205260409020546109d091906121f9565b421080156109e057506000600b54115b15610b45576000612710600b54846109f891906121c0565b610a0291906121d7565b90506000610a1082856121ad565b90508115610ac857600054600c5460405163a9059cbb60e01b81526001600160a01b0391821660048201526024810185905291169063a9059cbb906044016020604051808303816000875af1158015610a6d573d6000803e3d6000fd5b505050506040513d601f19601f82011682018060405250810190610a919190612250565b5060405182815233907f0f3dcb767b4ac7282336c1e263168d8c3425a3e04d782a1849127ccd55bff68e9060200160405180910390a25b60005460405163a9059cbb60e01b8152336004820152602481018390526001600160a01b039091169063a9059cbb906044016020604051808303816000875af1158015610b19573d6000803e3d6000fd5b505050506040513d601f19601f82011682018060405250810190610b3d9190612250565b505050610bbc565b60005460405163a9059cbb60e01b8152336004820152602481018490526001600160a01b039091169063a9059cbb906044016020604051808303816000875af1158015610b96573d6000803e3d6000fd5b505050506040513d601f19601f82011682018060405250810190610bba9190612250565b505b60405182815233907f7084f5476618d8e60b11ef0d7d3f06914655adb8793e28ff7f018d4c76d505d5906020015b60405180910390a250610c0a600160008051602061231783398151915255565b50565b610c15611879565b610c1d61182d565b610c256118d4565b828114610c6d5760405162461bcd60e51b8152602060048201526016602482015275082e4e4c2f2e640d8cadccee8d040dad2e6dac2e8c6d60531b60448201526064016107d6565b82610ca95760405162461bcd60e51b815260206004820152600c60248201526b456d7074792061727261797360a01b60448201526064016107d6565b6000805b84811015610f34576000848483818110610cc957610cc9612272565b9050602002013511610d0e5760405162461bcd60e51b815260206004820152600e60248201526d043616e6e6f74207374616b6520360941b60448201526064016107d6565b6000868683818110610d2257610d22612272565b9050602002016020810190610d379190611efa565b6001600160a01b031603610d8d5760405162461bcd60e51b815260206004820152601c60248201527f43616e6e6f74207374616b6520746f207a65726f20616464726573730000000060448201526064016107d6565b838382818110610d9f57610d9f612272565b9050602002013582610db191906121f9565b9150838382818110610dc557610dc5612272565b9050602002013560086000888885818110610de257610de2612272565b9050602002016020810190610df79190611efa565b6001600160a01b03166001600160a01b031681526020019081526020016000206000828254610e2691906121f9565b90915550429050600a6000888885818110610e4357610e43612272565b9050602002016020810190610e589190611efa565b6001600160a01b03168152602081019190915260400160002055610ea1868683818110610e8757610e87612272565b9050602002016020810190610e9c9190611efa565b611905565b858582818110610eb357610eb3612272565b9050602002016020810190610ec89190611efa565b6001600160a01b03167f9e71bc8eea02a63969f509818f2dafb9254532904319f9dbda79b67bd34a5f3d858584818110610f0457610f04612272565b90506020020135604051610f1a91815260200190565b60405180910390a280610f2c81612288565b915050610cad565b508060076000828254610f4791906121f9565b90915550506000546040516323b872dd60e01b8152336004820152306024820152604481018390526001600160a01b03909116906323b872dd906064016020604051808303816000875af1158015610fa3573d6000803e3d6000fd5b505050506040513d601f19601f82011682018060405250810190610fc79190612250565b5050610fe0600160008051602061231783398151915255565b50505050565b610fee61182d565b33610ff761170d565b600455426003556001600160a01b038116156110425761101681610689565b6001600160a01b0382166000908152600660209081526040808320939093556004546005909152919020555b336000908152600660205260409020548015611117573360008181526006602052604080822091909155600154905163a9059cbb60e01b81526004810192909252602482018390526001600160a01b03169063a9059cbb906044016020604051808303816000875af11580156110bc573d6000803e3d6000fd5b505050506040513d601f19601f820116820180604052508101906110e09190612250565b5060405181815233907fe2403640ba68fed3a2f88b7557551d1993f84b99bb10ff833f0cf8db0c5e04869060200160405180910390a25b5050611130600160008051602061231783398151915255565b565b61113a611879565b61113061195a565b61114a611879565b60098190556040518181527f3e062f634a950eae456fa5f8fb53a4f59f55039983bd73df7a34a313b75443d4906020015b60405180910390a150565b61118e6119b4565b61119782611a59565b6111a18282611a61565b5050565b60006111af611b23565b506000805160206122d783398151915290565b6111ca611879565b6111306000611b6c565b6111dc611879565b611130611bdd565b6111ec611879565b60006111f661170d565b600455426003556001600160a01b038116156112415761121581610689565b6001600160a01b0382166000908152600660209081526040808320939093556004546005909152919020555b60028290556040518281527f41d466ebd06fb97e7786086ac8b69b7eb7da798592036251291d34e9791cde019060200160405180910390a15050565b611285611879565b6001600160a01b0381166112ab5760405162461bcd60e51b81526004016107d69061220c565b600c80546001600160a01b0319166001600160a01b0383169081179091556040519081527fe5693914d19c789bdee50a362998c0bc8d035a835f9871da5d51152f0582c34f9060200161117b565b61130161182d565b6113096118d4565b3361131261170d565b600455426003556001600160a01b0381161561135d5761133181610689565b6001600160a01b0382166000908152600660209081526040808320939093556004546005909152919020555b6000821161139e5760405162461bcd60e51b815260206004820152600e60248201526d043616e6e6f74207374616b6520360941b60448201526064016107d6565b81600760008282546113b091906121f9565b909155505033600090815260086020526040812080548492906113d49084906121f9565b9091555050336000818152600a6020526040808220429055905490516323b872dd60e01b81526004810192909252306024830152604482018490526001600160a01b0316906323b872dd906064016020604051808303816000875af1158015611441573d6000803e3d6000fd5b505050506040513d601f19601f820116820180604052508101906114659190612250565b5060405182815233907f9e71bc8eea02a63969f509818f2dafb9254532904319f9dbda79b67bd34a5f3d90602001610bea565b6009546001600160a01b0382166000908152600a6020526040812054909182916114c291906121f9565b90508042106114d45750600092915050565b6114de42826121ad565b9392505050565b7ff0c57e16840df040f15088dc2f81fe391c3923bec73e23a9662efc9c229c6a008054600160401b810460ff16159067ffffffffffffffff1660008115801561152b5750825b905060008267ffffffffffffffff1660011480156115485750303b155b905081158015611556575080155b156115745760405163f92ee8a960e01b815260040160405180910390fd5b845467ffffffffffffffff19166001178555831561159e57845460ff60401b1916600160401b1785555b6115a786611c26565b6115af611c37565b6115b7611c47565b6115bf611c57565b6001600160a01b0389166116215760405162461bcd60e51b8152602060048201526024808201527f5374616b696e6720746f6b656e2063616e6e6f74206265207a65726f206164646044820152637265737360e01b60648201526084016107d6565b6001600160a01b0388166116835760405162461bcd60e51b815260206004820152602360248201527f52657761726420746f6b656e2063616e6e6f74206265207a65726f206164647260448201526265737360e81b60648201526084016107d6565b600080546001600160a01b03808c166001600160a01b03199283161790925560018054928b1692909116919091179055600287905542600355831561170257845460ff60401b19168555604051600181527fc7f505b2f371ae2175ee4913f4499e1f2633a7b5936321eed1cdaeb6115181d29060200160405180910390a15b505050505050505050565b6000600754600003611720575060045490565b60075460025460035461173390426121ad565b61173d91906121c0565b61174f90670de0b6b3a76400006121c0565b61175991906121d7565b60045461176691906121f9565b905090565b611773611879565b6001600160a01b03811661179d57604051631e4fbdf760e01b8152600060048201526024016107d6565b610c0a81611b6c565b6117ae611879565b6103e88111156117f85760405162461bcd60e51b81526020600482015260156024820152744665652063616e6e6f74206578636565642031302560581b60448201526064016107d6565b600b8190556040518181527f45108bbe17e2c6b15aef1a0c3b1668a1bc7f6d41aeb46a048100e839ba6fdac89060200161117b565b60008051602061231783398151915280546001190161185f57604051633ee5aeb560e01b815260040160405180910390fd5b60029055565b600160008051602061231783398151915255565b336118ab7f9016d09d72d40fdae2fd8ceac6b6234c7706214fd39c1cd1e609a0528c199300546001600160a01b031690565b6001600160a01b0316146111305760405163118cdaa760e01b81523360048201526024016107d6565b6000805160206122f78339815191525460ff16156111305760405163d93c066560e01b815260040160405180910390fd5b61190d61170d565b600455426003556001600160a01b03811615610c0a5761192c81610689565b6001600160a01b03821660009081526006602090815260408083209390935560045460059091529190205550565b611962611c5f565b6000805160206122f7833981519152805460ff191681557f5db9ee0a495bf2e6ff9c91a7834c1ba4fdd244a5e8aa4e537bd38aeae4b073aa335b6040516001600160a01b03909116815260200161117b565b306001600160a01b037f0000000000000000000000000000000000000000000000000000000000000000161480611a3b57507f00000000000000000000000000000000000000000000000000000000000000006001600160a01b0316611a2f6000805160206122d7833981519152546001600160a01b031690565b6001600160a01b031614155b156111305760405163703e46dd60e11b815260040160405180910390fd5b610c0a611879565b816001600160a01b03166352d1902d6040518163ffffffff1660e01b8152600401602060405180830381865afa925050508015611abb575060408051601f3d908101601f19168201909252611ab8918101906122a1565b60015b611ae357604051634c9c8ce360e01b81526001600160a01b03831660048201526024016107d6565b6000805160206122d78339815191528114611b1457604051632a87526960e21b8152600481018290526024016107d6565b611b1e8383611c8f565b505050565b306001600160a01b037f000000000000000000000000000000000000000000000000000000000000000016146111305760405163703e46dd60e11b815260040160405180910390fd5b7f9016d09d72d40fdae2fd8ceac6b6234c7706214fd39c1cd1e609a0528c19930080546001600160a01b031981166001600160a01b03848116918217845560405192169182907f8be0079c531659141344cd1fd0a4f28419497f9722a3daafe3b4186f6b6457e090600090a3505050565b611be56118d4565b6000805160206122f7833981519152805460ff191660011781557f62e78cea01bee320cd4e420270b5ea74000d11b0c9f74754ebdbfc544b05a2583361199c565b611c2e611ce5565b610c0a81611d2e565b611c3f611ce5565b611130611d36565b611c4f611ce5565b611130611d3e565b611130611ce5565b6000805160206122f78339815191525460ff1661113057604051638dfc202b60e01b815260040160405180910390fd5b611c9882611d5f565b6040516001600160a01b038316907fbc7cd75a20ee27fd9adebab32041f755214dbc6bffa90cc0225b39da2e5c2d3b90600090a2805115611cdd57611b1e8282611dc4565b6111a1611e3a565b7ff0c57e16840df040f15088dc2f81fe391c3923bec73e23a9662efc9c229c6a0054600160401b900460ff1661113057604051631afcd79f60e31b815260040160405180910390fd5b611773611ce5565b611865611ce5565b611d46611ce5565b6000805160206122f7833981519152805460ff19169055565b806001600160a01b03163b600003611d9557604051634c9c8ce360e01b81526001600160a01b03821660048201526024016107d6565b6000805160206122d783398151915280546001600160a01b0319166001600160a01b0392909216919091179055565b6060600080846001600160a01b031684604051611de191906122ba565b600060405180830381855af49150503d8060008114611e1c576040519150601f19603f3d011682016040523d82523d6000602084013e611e21565b606091505b5091509150611e31858383611e59565b95945050505050565b34156111305760405163b398979f60e01b815260040160405180910390fd5b606082611e6e57611e6982611eb5565b6114de565b8151158015611e8557506001600160a01b0384163b155b15611eae57604051639996b31560e01b81526001600160a01b03851660048201526024016107d6565b5092915050565b805115611ec55780518082602001fd5b604051630a12f52160e11b815260040160405180910390fd5b80356001600160a01b0381168114611ef557600080fd5b919050565b600060208284031215611f0c57600080fd5b6114de82611ede565b600080600060608486031215611f2a57600080fd5b8335925060208401359150611f4160408501611ede565b90509250925092565b600060208284031215611f5c57600080fd5b5035919050565b60008083601f840112611f7557600080fd5b50813567ffffffffffffffff811115611f8d57600080fd5b6020830191508360208260051b8501011115611fa857600080fd5b9250929050565b60008060008060408587031215611fc557600080fd5b843567ffffffffffffffff80821115611fdd57600080fd5b611fe988838901611f63565b9096509450602087013591508082111561200257600080fd5b5061200f87828801611f63565b95989497509550505050565b634e487b7160e01b600052604160045260246000fd5b6000806040838503121561204457600080fd5b61204d83611ede565b9150602083013567ffffffffffffffff8082111561206a57600080fd5b818501915085601f83011261207e57600080fd5b8135818111156120905761209061201b565b604051601f8201601f19908116603f011681019083821181831017156120b8576120b861201b565b816040528281528860208487010111156120d157600080fd5b8260208601602083013760006020848301015280955050505050509250929050565b60005b8381101561210e5781810151838201526020016120f6565b50506000910152565b60208152600082518060208401526121368160408501602087016120f3565b601f01601f19169190910160400192915050565b6000806000806080858703121561216057600080fd5b61216985611ede565b935061217760208601611ede565b92506040850135915061218c60608601611ede565b905092959194509250565b634e487b7160e01b600052601160045260246000fd5b8181038181111561070057610700612197565b808202811582820484141761070057610700612197565b6000826121f457634e487b7160e01b600052601260045260246000fd5b500490565b8082018082111561070057610700612197565b60208082526024908201527f46656520636f6c6c6563746f722063616e6e6f74206265207a65726f206164646040820152637265737360e01b606082015260800190565b60006020828403121561226257600080fd5b815180151581146114de57600080fd5b634e487b7160e01b600052603260045260246000fd5b60006001820161229a5761229a612197565b5060010190565b6000602082840312156122b357600080fd5b5051919050565b600082516122cc8184602087016120f3565b919091019291505056fe360894a13ba1a3210667c828492db98dca3e2076cc3735a920a3ca505d382bbccd5ed15c6e187e77e9aee88184c21f4f2182ab5827cb3b7e07fbedcd63f033009b779b17422d0df92223018b32b4d1fa46e071723d6817e2486d003becc55f00a2646970667358221220250b738bb0887c73622ac46746a3291579291df1fcb27794558d418cbedd833664736f6c63430008140033",
  "linkReferences": {},
  "deployedLinkReferences": {}
}